:020000040000FA
:10000000200300106901000071010000730100006D
:100010007501000077010000790100000000000078
:100020000000000000000000000000007B01000054
:100030007D010000000000007F0100008101000040
:1000400083010000830100008301000083010000A0
:100050008301000083010000830100008301000090
:100060008301000083010000830100008301000080
:100070008301000083010000830100008301000070
:100080008301000083010000830100008301000060
:100090008301000083010000830100008301000050
:1000A0008301000083010000830100008301000040
:1000B0008301000083010000830100008301000030
:1000C00083010000830100008301000000F002F8BA
:1000D00000F03AF80AA090E8000C82448344AAF1A8
:1000E0000107DA4501D100F02FF8AFF2090EBAE8A6
:1000F0000F0013F0010F18BFFB1A43F0010318475C
:10010000E0090000000A0000103A24BF78C878C156
:10011000FAD8520724BF30C830C144BF04680C600D
:10012000704700000023002400250026103A28BF55
:1001300078C1FBD8520728BF30C148BF0B60704759
:100140001FB51FBD10B510BD00F0A5FC1146FFF78F
:10015000F7FF00F025FB00F0AFF803B4FFF7F2FF64
:1001600003BC00F0B3F80000094880470948004785
:10017000FEE7FEE7FEE7FEE7FEE7FEE7FEE7FEE757
:10018000FEE7FEE704480549034A054B70470000B7
:10019000A9040000CD000000200100102003001081
:1001A0002001001010B5044600211120ABBE002C28
:1001B00000D0206010BD53EA020C00F069802DE9E8
:1001C000F04B4FF00006002B1FBFB3FA83F503FA84
:1001D00005F424FA05F65E4012BF1643B2FA82F522
:1001E00002FA05F4C5F120051EBF22FA05FC44EA17
:1001F0000C04203556EA044C4FEA144418BF641C22
:100200004FF000084FF00009904271EB030C39D316
:10021000002919BFB1FA81F701FA07F6B0FA80F7A1
:1002200000FA07F6C7F120071EBF20FA07FC46EACE
:100230000C062037B6FBF4FCA7EB0507103F07F0D0
:100240001F0BCBF120060CFA0BFB2CFA06F644BF71
:10025000B3460026202FA4BF5E464FF0000B5BEA9A
:10026000060C08BF4FF0010B19EB0B09ABFB027C2E
:1002700048EB0608C01B06FB02CC0BFB03CC71EB62
:100280000C01C1E70B46024641464846BDE8F08BEB
:1002900013B54FF000004FF00001AFF30080BDE850
:1002A0001C407047014900F07DBB00009400001025
:1002B00070477047704770470446AFF30080204690
:1002C000FFF74BFF00487047C0000010014918209D
:1002D000ABBEFEE7260002001F1D1F1E1F1E1F1FB4
:1002E0001E1F1E1F00000000000000000000000094
:1002F000000000000000000000000000FFFFFFFF02
:100300002DE9F04781480068C0F3016003287CD1E3
:100310007F48006810F0030006D0012833D002287F
:100320005FD003282ED100E000BF78480068C0F3FA
:10033000074000F101044FF002017648D0F8880030
:10034000C0F30E0000F10100A1FB0001724B4FF061
:10035000000CA0FB037901FB039100FB0C1122466A
:1003600063463846FFF727FF05466C480068C0B271
:1003700000F1010422464FF000032846FFF71BFF5F
:10038000674908605DE061480068C0F3074000F11C
:1003900001044FF002015F48D0F88800C0F30E005E
:1003A00000F10100A1FB00105E4A4FF0000CA1FB20
:1003B000027900FB029001FB0C012246634638469D
:1003C000FFF7F9FE054655480068C0B200F1010488
:1003D00022464FF000032846FFF7EDFE5049086023
:1003E0002FE04A480068C0F3074000F101044FF0D5
:1003F00002014848D0F88800C0F30E0000F1010067
:10040000A1FB00124FF4004000E01BE04FF000039E
:10041000A1FB007902FB009001FB03012246384654
:10042000FFF7C9FE05463D480068C0B200F101046F
:1004300022464FF000032846FFF7BDFE384908600A
:1004400000BF2FE03248006810F0030006D00128FA
:1004500010D0022819D0032823D100E000BF2F4874
:100460000068C0B200F101002B49B1FBF0F02C494B
:10047000086016E029480068C0B200F1010029496F
:10048000B1FBF0F0264908600BE024480068C0B2D8
:1004900000F101004FF40041B1FBF0F02049086089
:1004A00000BF00BFBDE8F08720201F490860194841
:1004B000D0F8A00110F0200F05D000BF1A48006846
:1004C00010F0400FFAD00320144908601748114972
:1004D000C1F8A8011648174908604FF001000C49FF
:1004E00008604FF00000A1F10401086012481349B0
:1004F00008604FF480700749C1F8C80108460068D9
:1005000020F4704040F480400860704788C00F407D
:100510000CC10F4000C00F4000093D0004C10F4056
:1005200000000010001BB700A0C10F4055515155ED
:1005300055545554ACC10F40DE872804C4C00F4049
:100540000020ED4908670220486040F6B730C860D7
:1005500070470221E84A51600121516000BFE6491D
:1005600089688142FBD30021E34A516070474FF014
:10057000F060E249C8614FF00060C8614000C861A6
:10058000704710B504460B46FFF7F1FFDB484461A6
:1005900023B94FF00060D949C86103E04FF0006013
:1005A000D64988614FF08050D44988611920FFF7FF
:1005B000D0FF4FF08050D149C86110BD70B50446DE
:1005C0000E4604F0F005ED0431462846FFF7D9FF4A
:1005D00004F00F05ED0531462846FFF7D2FF6420F1
:1005E000FFF7B7FF70BD00B5C5484068C549084072
:1005F000C3494860C148006840F0FC50BF490860EA
:10060000FFF7B5FF4FF4A070FFF7A3FF00213320E1
:10061000FFF7D4FF4FF49670FFF79BFF00213220C5
:10062000FFF7CCFF4FF49670FFF793FF00212820CF
:10063000FFF7C4FF4FF49670FFF78BFF00210C20EB
:10064000FFF7BCFF5020FFF784FF00210620FFF7D3
:10065000B5FF5020FFF77DFF00210120FFF7AEFF1F
:100660006420FFF776FF00BD70B5054600240BE05F
:100670002E5D01213046FFF7A1FF641C102C03D131
:100680000021C020FFF79AFF285D0028F0D170BD3F
:1006900000214FF040221167022151609A49D16038
:1006A000114688612021D163704702204FF040211C
:1006B00048600120486000BF4FF04020C06B10F040
:1006C000010FF9D000204FF040214860704770B50D
:1006D0008CB00020FFF766FD0B900BA8FFF7E2FD42
:1006E00006462C223146684600F02AF9029C019DFC
:1006F0000EE00A20B4FBF0F100FB11408349886052
:100700000A20B4FBF0F40846C4600A20B4FBF0F4FD
:10071000002CEED10EE00A20B5FBF0F100FB1150E9
:100720007A4908600A20B5FBF0F5084645600A20C2
:10073000B5FBF0F5002DEED10CB070BD0CB503206B
:100740000DE07249724A126811F822103031C9B2B4
:100750006F4A1268C2F103020DF80210401EF0E762
:100760006648406B6B4908600846006800F0F0601E
:1007700008600846006890B1012067490870654824
:100780000068C00C6349086064480068800A6349D7
:10079000086060480078097808436149087070472C
:1007A0005648006C40F47050544908640846006A8A
:1007B00020F0F0600862FFF7C3FEFFF775FEFFF759
:1007C0009FFDFFF710FF00218020FFF7F7FE4FF499
:1007D0004870FFF7BEFEFFF7CAFE4FF44860FFF710
:1007E000B8FE5048FFF740FF84E047E001204E4943
:1007F000087039E04C480078012803D180024B4949
:10080000086017E048480078022803D18002474971
:1008100008600FE044480078032804D14FF480506A
:100820004249086006E040480078042802D1C0022E
:100830003E4908603D480068384908604FF47050F0
:100840002E49C8653948006888650020324908701B
:10085000FFF786FF30480078012800D108E03248D1
:100860000078401C304908702F4800780528C1DB0B
:1008700000BF29480078012800D100E0B6E700BF9A
:100880002748007844282ED02548007884282AD08C
:1008900023480178264802680068401C244B1860F1
:1008A0002448815400201A49086013E0224818495E
:1008B0000968405C1A490978884206D11F481449E2
:1008C0000968405C1649087008E011480068401C3F
:1008D0000F4908600E4800681028E7D300BF104891
:1008E000FFF7C2FE06E00E480078442801D1FFF76A
:1008F00025FF00BF79E700000080004000C009200C
:1009000000C00240FF3F00FCDF93040084000010A1
:1009100054000010680000104D0000105C00001032
:100920004E000010740000104C0000105800001021
:10093000500000106C0000100400001014000010A3
:1009400010B5203AC0F00B80B1E81850203AA0E86A
:100950001850B1E81850A0E81850BFF4F5AF5FEA9E
:10096000027C24BFB1E81850A0E8185044BF18C951
:1009700018C0BDE810405FEA827C24BF51F8043BF8
:1009800040F8043B08BF7047D20728BF31F8023B4C
:1009900048BF11F8012B28BF20F8023B48BF00F8E0
:1009A000012B704770B50C46016800204A1C34D0FA
:1009B00040F2B5553C23B1FBF3F203FB1211216069
:1009C000B2FBF3F103FB112218236260B1FBF3F2D7
:1009D00003FB1211A16046F2E0310A440721B2FB89
:1009E000F1F301FB1321B2FBF5F305FB1322A16127
:1009F0009900B2F5B77F06D3521EAD10B2FBF5F3E6
:100A0000194405FB13220F4BE261616189077B44A6
:100A10000CD03B2A0AD3521C08E02C21204600F0BF
:100A200013F80120E0600AE0521A401C195C914260
:100A3000FAD9521CC4E903204FF0FF30206220464F
:100A400070BD0000C6F8FFFF4FF0000200B513466E
:100A500094469646203922BFA0E80C50A0E80C50DE
:100A6000B1F12001BFF4F7AF090728BFA0E80C508F
:100A700048BF0CC05DF804EB890028BF40F8042B88
:100A800008BF704748BF20F8022B11F0804F18BFF5
:100A900000F8012B70477546FFF714FCAE460500C1
:100AA0006946534620F00700854618B020B5FFF789
:100AB00069FBBDE820404FF000064FF000074FF003
:100AC00000084FF0000B21F00701AC46ACE8C0096C
:100AD000ACE8C009ACE8C009ACE8C0098D46704775
:100AE000000B00000000001074000000080100006E
:100AF000740B000074000010AC0200002401000020
:100B0000C0C62D0011214181122242821424448446
:100B100018284888303132333435363738396F4900
:100B2000202020203F000000060000005B000000A5
:100B30004F000000660000006D0000007D00000016
:100B4000070000007F0000006F00000000000000B0
:100B50000000000000000000000000000000000095
:100B60000000000000000000000000000000000085
:040B70000000000081
:04000005000000CD2A
:00000001FF
